{
  "transactions": [
    {
      "hash": "0xe518fd95aec16042ed9aeec13d9399fd0674764d4dbcbe9c82d0e3406ff2346c",
      "transactionType": "CREATE",
      "contractName": "SampleContract",
      "contractAddress": "0x1430c9c2143f97aae765197e744baba7e78acaf0",
      "function": null,
      "arguments": null,
      "transaction": {
        "from": "0x8943545177806ed17b9f23f0a21ee5948ecaa776",
        "gas": "0x13c8c5",
        "value": "0x0",
        "input": "0x6080604052602a5f55348015610013575f5ffd5b506103e860015f3373ffffffffffffffffffffffffffffffffffffffff1673ffffffffffffffffffffffffffffffffffffffff1681526020019081526020015f2081905550600333908060018154018082558091505060019003905f5260205f20015f9091909190916101000a81548173ffffffffffffffffffffffffffffffffffffffff021916908373ffffffffffffffffffffffffffffffffffffffff16021790555060405180606001604052806040518060400160405280600581526020017f41646d696e0000000000000000000000000000000000000000000000000000008152508152602001601e81526020016001151581525060045f3373ffffffffffffffffffffffffffffffffffffffff1673ffffffffffffffffffffffffffffffffffffffff1681526020019081526020015f205f820151815f01908161015c91906103cb565b50602082015181600101556040820151816002015f6101000a81548160ff02191690831515021790555090505061049a565b5f81519050919050565b7f4e487b71000000000000000000000000000000000000000000000000000000005f52604160045260245ffd5b7f4e487b71000000000000000000000000000000000000000000000000000000005f52602260045260245ffd5b5f600282049050600182168061020957607f821691505b60208210810361021c5761021b6101c5565b5b50919050565b5f819050815f5260205f209050919050565b5f6020601f8301049050919050565b5f82821b905092915050565b5f6008830261027e7fffffffffffffffffffffffffffffffffffffffffffffffffffffffffffffffff82610243565b6102888683610243565b95508019841693508086168417925050509392505050565b5f819050919050565b5f819050919050565b5f6102cc6102c76102c2846102a0565b6102a9565b6102a0565b9050919050565b5f819050919050565b6102e5836102b2565b6102f96102f1826102d3565b84845461024f565b825550505050565b5f5f905090565b610310610301565b61031b8184846102dc565b505050565b5b8181101561033e576103335f82610308565b600181019050610321565b5050565b601f8211156103835761035481610222565b61035d84610234565b8101602085101561036c578190505b61038061037885610234565b830182610320565b50505b505050565b5f82821c905092915050565b5f6103a35f1984600802610388565b1980831691505092915050565b5f6103bb8383610394565b9150826002028217905092915050565b6103d48261018e565b67ffffffffffffffff8111156103ed576103ec610198565b5b6103f782546101f2565b610402828285610342565b5f60209050601f831160018114610433575f8415610421578287015190505b61042b85826103b0565b865550610492565b601f19841661044186610222565b5f5b8281101561046857848901518255600182019150602085019450602081019050610443565b868310156104855784890151610481601f891682610394565b8355505b6001600288020188555050505b505050505050565b610df0806104a75f395ff3fe608060405234801561000f575f5ffd5b50600436106100a7575f3560e01c806362c6ca461161006f57806362c6ca461461013b578063a87430ba1461016b578063c420fa851461019d578063cdbb02af146101b9578063e30443bc146101d7578063edf26d9b146101f3576100a7565b806317652083146100ab57806327e235e3146100c757806338eada1c146100f75780635b34b9661461011357806361bc221a1461011d575b5f5ffd5b6100c560048036038101906100c09190610688565b610223565b005b6100e160048036038101906100dc91906106d8565b61028b565b6040516100ee9190610712565b60405180910390f35b610111600480360381019061010c91906106d8565b6102a0565b005b61011b610303565b005b610125610353565b6040516101329190610712565b60405180910390f35b6101556004803603810190610150919061072b565b610358565b6040516101629190610778565b60405180910390f35b610185600480360381019061018091906106d8565b610382565b60405161019493929190610801565b60405180910390f35b6101b760048036038101906101b29190610969565b61043a565b005b6101c16104da565b6040516101ce9190610712565b60405180910390f35b6101f160048036038101906101ec91906109e9565b6104e6565b005b61020d60048036038101906102089190610a27565b61057a565b60405161021a9190610a61565b60405180910390f35b8060025f8581526020019081526020015f205f8473ffffffffffffffffffffffffffffffffffffffff1673ffffffffffffffffffffffffffffffffffffffff1681526020019081526020015f205f6101000a81548160ff021916908315150217905550505050565b6001602052805f5260405f205f915090505481565b600381908060018154018082558091505060019003905f5260205f20015f9091909190916101000a81548173ffffffffffffffffffffffffffffffffffffffff021916908373ffffffffffffffffffffffffffffffffffffffff16021790555050565b5f5f81548092919061031490610aa7565b91905055507f3cf8b50771c17d723f2cb711ca7dadde485b222e13c84ba0730a14093fad6d5c5f546040516103499190610712565b60405180910390a1565b5f5481565b6002602052815f5260405f20602052805f5260405f205f915091509054906101000a900460ff1681565b6004602052805f5260405f205f91509050805f0180546103a190610b1b565b80601f01602080910402602001604051908101604052809291908181526020018280546103cd90610b1b565b80156104185780601f106103ef57610100808354040283529160200191610418565b820191905f5260205f20905b8154815290600101906020018083116103fb57829003601f168201915b505050505090806001015490806002015f9054906101000a900460ff16905083565b604051806060016040528084815260200183815260200182151581525060045f8673ffffffffffffffffffffffffffffffffffffffff1673ffffffffffffffffffffffffffffffffffffffff1681526020019081526020015f205f820151815f0190816104a79190610ceb565b50602082015181600101556040820151816002015f6101000a81548160ff02191690831515021790555090505050505050565b5f600380549050905090565b8060015f8473ffffffffffffffffffffffffffffffffffffffff1673ffffffffffffffffffffffffffffffffffffffff1681526020019081526020015f20819055508173ffffffffffffffffffffffffffffffffffffffff167f8ad64a0ac7700dd8425ab0499f107cb6e2cd1581d803c5b8c1c79dcb8190b1af8260405161056e9190610712565b60405180910390a25050565b60038181548110610589575f80fd5b905f5260205f20015f915054906101000a900473ffffffffffffffffffffffffffffffffffffffff1681565b5f604051905090565b5f5ffd5b5f5ffd5b5f819050919050565b6105d8816105c6565b81146105e2575f5ffd5b50565b5f813590506105f3816105cf565b92915050565b5f73ffffffffffffffffffffffffffffffffffffffff82169050919050565b5f610622826105f9565b9050919050565b61063281610618565b811461063c575f5ffd5b50565b5f8135905061064d81610629565b92915050565b5f8115159050919050565b61066781610653565b8114610671575f5ffd5b50565b5f813590506106828161065e565b92915050565b5f5f5f6060848603121561069f5761069e6105be565b5b5f6106ac868287016105e5565b93505060206106bd8682870161063f565b92505060406106ce86828701610674565b9150509250925092565b5f602082840312156106ed576106ec6105be565b5b5f6106fa8482850161063f565b91505092915050565b61070c816105c6565b82525050565b5f6020820190506107255f830184610703565b92915050565b5f5f60408385031215610741576107406105be565b5b5f61074e858286016105e5565b925050602061075f8582860161063f565b9150509250929050565b61077281610653565b82525050565b5f60208201905061078b5f830184610769565b92915050565b5f81519050919050565b5f82825260208201905092915050565b8281835e5f83830152505050565b5f601f19601f8301169050919050565b5f6107d382610791565b6107dd818561079b565b93506107ed8185602086016107ab565b6107f6816107b9565b840191505092915050565b5f6060820190508181035f83015261081981866107c9565b90506108286020830185610703565b6108356040830184610769565b949350505050565b5f5ffd5b5f5ffd5b7f4e487b71000000000000000000000000000000000000000000000000000000005f52604160045260245ffd5b61087b826107b9565b810181811067ffffffffffffffff8211171561089a57610899610845565b5b80604052505050565b5f6108ac6105b5565b90506108b88282610872565b919050565b5f67ffffffffffffffff8211156108d7576108d6610845565b5b6108e0826107b9565b9050602081019050919050565b828183375f83830152505050565b5f61090d610908846108bd565b6108a3565b90508281526020810184848401111561092957610928610841565b5b6109348482856108ed565b509392505050565b5f82601f8301126109505761094f61083d565b5b81356109608482602086016108fb565b91505092915050565b5f5f5f5f60808587031215610981576109806105be565b5b5f61098e8782880161063f565b945050602085013567ffffffffffffffff8111156109af576109ae6105c2565b5b6109bb8782880161093c565b93505060406109cc878288016105e5565b92505060606109dd87828801610674565b91505092959194509250565b5f5f604083850312156109ff576109fe6105be565b5b5f610a0c8582860161063f565b9250506020610a1d858286016105e5565b9150509250929050565b5f60208284031215610a3c57610a3b6105be565b5b5f610a49848285016105e5565b91505092915050565b610a5b81610618565b82525050565b5f602082019050610a745f830184610a52565b92915050565b7f4e487b71000000000000000000000000000000000000000000000000000000005f52601160045260245ffd5b5f610ab1826105c6565b91507fffffffffffffffffffffffffffffffffffffffffffffffffffffffffffffffff8203610ae357610ae2610a7a565b5b600182019050919050565b7f4e487b71000000000000000000000000000000000000000000000000000000005f52602260045260245ffd5b5f6002820490506001821680610b3257607f821691505b602082108103610b4557610b44610aee565b5b50919050565b5f819050815f5260205f209050919050565b5f6020601f8301049050919050565b5f82821b905092915050565b5f60088302610ba77fffffffffffffffffffffffffffffffffffffffffffffffffffffffffffffffff82610b6c565b610bb18683610b6c565b95508019841693508086168417925050509392505050565b5f819050919050565b5f610bec610be7610be2846105c6565b610bc9565b6105c6565b9050919050565b5f819050919050565b610c0583610bd2565b610c19610c1182610bf3565b848454610b78565b825550505050565b5f5f905090565b610c30610c21565b610c3b818484610bfc565b505050565b5b81811015610c5e57610c535f82610c28565b600181019050610c41565b5050565b601f821115610ca357610c7481610b4b565b610c7d84610b5d565b81016020851015610c8c578190505b610ca0610c9885610b5d565b830182610c40565b50505b505050565b5f82821c905092915050565b5f610cc35f1984600802610ca8565b1980831691505092915050565b5f610cdb8383610cb4565b9150826002028217905092915050565b610cf482610791565b67ffffffffffffffff811115610d0d57610d0c610845565b5b610d178254610b1b565b610d22828285610c62565b5f60209050601f831160018114610d53575f8415610d41578287015190505b610d4b8582610cd0565b865550610db2565b601f198416610d6186610b4b565b5f5b82811015610d8857848901518255600182019150602085019450602081019050610d63565b86831015610da55784890151610da1601f891682610cb4565b8355505b6001600288020188555050505b50505050505056fea26469706673582212201eb211a3d990aa056f4d89c00b57d6f41da917044e9a3eb247e0e2411921816164736f6c634300081c0033",
        "nonce": "0x14",
        "chainId": "0x301824"
      },
      "additionalContracts": [],
      "isFixedGasLimit": false
    },
    {
      "hash": "0x727e438317f088470d4c092e55123dccd49d32d6e5252d2317065591252412e3",
      "transactionType": "CREATE",
      "contractName": "Counter",
      "contractAddress": "0x80741a37e3644612f0465145c9709a90b6d77ee3",
      "function": null,
      "arguments": null,
      "transaction": {
        "from": "0x8943545177806ed17b9f23f0a21ee5948ecaa776",
        "gas": "0x31c50",
        "value": "0x0",
        "input": "0x6080604052348015600e575f5ffd5b506101e18061001c5f395ff3fe608060405234801561000f575f5ffd5b506004361061003f575f3560e01c80633fb5c1cb146100435780638381f58a1461005f578063d09de08a1461007d575b5f5ffd5b61005d600480360381019061005891906100e4565b610087565b005b610067610090565b604051610074919061011e565b60405180910390f35b610085610095565b005b805f8190555050565b5f5481565b5f5f8154809291906100a690610164565b9190505550565b5f5ffd5b5f819050919050565b6100c3816100b1565b81146100cd575f5ffd5b50565b5f813590506100de816100ba565b92915050565b5f602082840312156100f9576100f86100ad565b5b5f610106848285016100d0565b91505092915050565b610118816100b1565b82525050565b5f6020820190506101315f83018461010f565b92915050565b7f4e487b71000000000000000000000000000000000000000000000000000000005f52601160045260245ffd5b5f61016e826100b1565b91507fffffffffffffffffffffffffffffffffffffffffffffffffffffffffffffffff82036101a05761019f610137565b5b60018201905091905056fea264697066735822122053cf049d32447d8b5932a564b10581db162cf355c0df889d0aebec301ec1c45464736f6c634300081c0033",
        "nonce": "0x15",
        "chainId": "0x301824"
      },
      "additionalContracts": [],
      "isFixedGasLimit": false
    },
    {
      "hash": "0x40c7ea25e95e6a87672deb113da9a76eaaa702141ff3991a91f54bde6ea46286",
      "transactionType": "CALL",
      "contractName": "Counter",
      "contractAddress": "0x80741a37e3644612f0465145c9709a90b6d77ee3",
      "function": "setNumber(uint256)",
      "arguments": [
        "100"
      ],
      "transaction": {
        "from": "0x8943545177806ed17b9f23f0a21ee5948ecaa776",
        "to": "0x80741a37e3644612f0465145c9709a90b6d77ee3",
        "gas": "0xebc3",
        "value": "0x0",
        "input": "0x3fb5c1cb0000000000000000000000000000000000000000000000000000000000000064",
        "nonce": "0x16",
        "chainId": "0x301824"
      },
      "additionalContracts": [],
      "isFixedGasLimit": false
    },
    {
      "hash": "0x0b4c7d975a982a47d49b0eab8103358fabc6ccfe4ceceeb3842adc91cdcd8d58",
      "transactionType": "CALL",
      "contractName": "SampleContract",
      "contractAddress": "0x1430c9c2143f97aae765197e744baba7e78acaf0",
      "function": "incrementCounter()",
      "arguments": [],
      "transaction": {
        "from": "0x8943545177806ed17b9f23f0a21ee5948ecaa776",
        "to": "0x1430c9c2143f97aae765197e744baba7e78acaf0",
        "gas": "0x9e53",
        "value": "0x0",
        "input": "0x5b34b966",
        "nonce": "0x17",
        "chainId": "0x301824"
      },
      "additionalContracts": [],
      "isFixedGasLimit": false
    },
    {
      "hash": "0x75fd2b50221a76f47613b84f7d415c753c284769890e950d5a7c1b5f040ccbeb",
      "transactionType": "CALL",
      "contractName": "SampleContract",
      "contractAddress": "0x1430c9c2143f97aae765197e744baba7e78acaf0",
      "function": "setBalance(address,uint256)",
      "arguments": [
        "0xE25583099BA105D9ec0A67f5Ae86D90e50036425",
        "500"
      ],
      "transaction": {
        "from": "0x8943545177806ed17b9f23f0a21ee5948ecaa776",
        "to": "0x1430c9c2143f97aae765197e744baba7e78acaf0",
        "gas": "0x10729",
        "value": "0x0",
        "input": "0xe30443bc000000000000000000000000e25583099ba105d9ec0a67f5ae86d90e5003642500000000000000000000000000000000000000000000000000000000000001f4",
        "nonce": "0x18",
        "chainId": "0x301824"
      },
      "additionalContracts": [],
      "isFixedGasLimit": false
    },
    {
      "hash": "0xca99eb4e7168edd1f52dd949d3979bfb9743763b581429c44c24abcf4fb89923",
      "transactionType": "CALL",
      "contractName": "SampleContract",
      "contractAddress": "0x1430c9c2143f97aae765197e744baba7e78acaf0",
      "function": "addAddress(address)",
      "arguments": [
        "0x614561D2d143621E126e87831AEF287678B442b8"
      ],
      "transaction": {
        "from": "0x8943545177806ed17b9f23f0a21ee5948ecaa776",
        "to": "0x1430c9c2143f97aae765197e744baba7e78acaf0",
        "gas": "0x11915",
        "value": "0x0",
        "input": "0x38eada1c000000000000000000000000614561d2d143621e126e87831aef287678b442b8",
        "nonce": "0x19",
        "chainId": "0x301824"
      },
      "additionalContracts": [],
      "isFixedGasLimit": false
    },
    {
      "hash": "0x0f07cf547a6801e5ec65cd4081f9a6834e7fab38cb3c0482f6327c358c25db49",
      "transactionType": "CALL",
      "contractName": "SampleContract",
      "contractAddress": "0x1430c9c2143f97aae765197e744baba7e78acaf0",
      "function": "setUser(address,string,uint256,bool)",
      "arguments": [
        "0xf93Ee4Cf8c6c40b329b0c0626F28333c132CF241",
        "Alice",
        "25",
        "true"
      ],
      "transaction": {
        "from": "0x8943545177806ed17b9f23f0a21ee5948ecaa776",
        "to": "0x1430c9c2143f97aae765197e744baba7e78acaf0",
        "gas": "0x2076e",
        "value": "0x0",
        "input": "0xc420fa85000000000000000000000000f93ee4cf8c6c40b329b0c0626f28333c132cf2410000000000000000000000000000000000000000000000000000000000000080000000000000000000000000000000000000000000000000000000000000001900000000000000000000000000000000000000000000000000000000000000010000000000000000000000000000000000000000000000000000000000000005416c696365000000000000000000000000000000000000000000000000000000",
        "nonce": "0x1a",
        "chainId": "0x301824"
      },
      "additionalContracts": [],
      "isFixedGasLimit": false
    },
    {
      "hash": "0xab46b3eeb3a8665a28a58b39ae0909496c06a332a743f3e0bd27f5bcd8288b7d",
      "transactionType": "CALL",
      "contractName": "SampleContract",
      "contractAddress": "0x1430c9c2143f97aae765197e744baba7e78acaf0",
      "function": "setNestedMapping(uint256,address,bool)",
      "arguments": [
        "1",
        "0x802dCbE1B1A97554B4F50DB5119E37E8e7336417",
        "true"
      ],
      "transaction": {
        "from": "0x8943545177806ed17b9f23f0a21ee5948ecaa776",
        "to": "0x1430c9c2143f97aae765197e744baba7e78acaf0",
        "gas": "0x10022",
        "value": "0x0",
        "input": "0x176520830000000000000000000000000000000000000000000000000000000000000001000000000000000000000000802dcbe1b1a97554b4f50db5119e37e8e73364170000000000000000000000000000000000000000000000000000000000000001",
        "nonce": "0x1b",
        "chainId": "0x301824"
      },
      "additionalContracts": [],
      "isFixedGasLimit": false
    },
    {
      "hash": "0x1f7e7b2413e1dc3c894d61d87b2df838c283a89d67e57ff9228f2245180fea87",
      "transactionType": "CREATE",
      "contractName": "TimboTest",
      "contractAddress": "0xc5fc7ce1d859e6604f1e8e57ba0f4a92858850bc",
      "function": null,
      "arguments": null,
      "transaction": {
        "from": "0x8943545177806ed17b9f23f0a21ee5948ecaa776",
        "gas": "0x6035a",
        "value": "0x0",
        "input": "0x6080604052348015600e575f5ffd5b50600a5f819055503360015f6101000a81548173ffffffffffffffffffffffffffffffffffffffff021916908373ffffffffffffffffffffffffffffffffffffffff1602179055506103b7806100635f395ff3fe608060405234801561000f575f5ffd5b506004361061004a575f3560e01c80632baeceb71461004e5780638381f58a146100585780638da5cb5b14610076578063d826f88f14610094575b5f5ffd5b61005661009e565b005b6100606100f6565b60405161006d91906101d0565b60405180910390f35b61007e6100fb565b60405161008b9190610228565b60405180910390f35b61009c610120565b005b5f5f54116100e1576040517f08c379a00000000000000000000000000000000000000000000000000000000081526004016100d89061029b565b60405180910390fd5b60015f546100ef91906102e6565b5f81905550565b5f5481565b60015f9054906101000a900473ffffffffffffffffffffffffffffffffffffffff1681565b60015f9054906101000a900473ffffffffffffffffffffffffffffffffffffffff1673ffffffffffffffffffffffffffffffffffffffff163373ffffffffffffffffffffffffffffffffffffffff16146101af576040517f08c379a00000000000000000000000000000000000000000000000000000000081526004016101a690610363565b60405180910390fd5b600a5f81905550565b5f819050919050565b6101ca816101b8565b82525050565b5f6020820190506101e35f8301846101c1565b92915050565b5f73ffffffffffffffffffffffffffffffffffffffff82169050919050565b5f610212826101e9565b9050919050565b61022281610208565b82525050565b5f60208201905061023b5f830184610219565b92915050565b5f82825260208201905092915050565b7f4e756d6265722073686f756c642062652067726561746572207468616e2030005f82015250565b5f610285601f83610241565b915061029082610251565b602082019050919050565b5f6020820190508181035f8301526102b281610279565b9050919050565b7f4e487b71000000000000000000000000000000000000000000000000000000005f52601160045260245ffd5b5f6102f0826101b8565b91506102fb836101b8565b9250828203905081811115610313576103126102b9565b5b92915050565b7f4f6e6c792063616c6c61626c65206279206f776e6572210000000000000000005f82015250565b5f61034d601783610241565b915061035882610319565b602082019050919050565b5f6020820190508181035f83015261037a81610341565b905091905056fea2646970667358221220c8c3397198defb844aecfcd5e1ffbc9b9a365ab55a51b589d63eef5af0ff575264736f6c634300081c0033",
        "nonce": "0x1c",
        "chainId": "0x301824"
      },
      "additionalContracts": [],
      "isFixedGasLimit": false
    },
    {
      "hash": "0x9bc1c4af8a38679bb48e29ce78f1e5939cc3a6b0bb300f7e077a6dceaa65ba8b",
      "transactionType": "CALL",
      "contractName": "TimboTest",
      "contractAddress": "0xc5fc7ce1d859e6604f1e8e57ba0f4a92858850bc",
      "function": "decrement()",
      "arguments": [],
      "transaction": {
        "from": "0x8943545177806ed17b9f23f0a21ee5948ecaa776",
        "to": "0xc5fc7ce1d859e6604f1e8e57ba0f4a92858850bc",
        "gas": "0x8efe",
        "value": "0x0",
        "input": "0x2baeceb7",
        "nonce": "0x1d",
        "chainId": "0x301824"
      },
      "additionalContracts": [],
      "isFixedGasLimit": false
    }
  ],
  "receipts": [
    {
      "status": "0x1",
      "cumulativeGasUsed": "0xf37fa",
      "logs": [],
      "logsBloom": "0x00000000000000000000000000000000000000000000000000000000000000000000000000000000000000000000000000000000000000000000000000000000000000000000000000000000000000000000000000000000000000000000000000000000000000000000000000000000000000000000000000000000000000000000000000000000000000000000000000000000000000000000000000000000000000000000000000000000000000000000000000000000000000000000000000000000000000000000000000000000000000000000000000000000000000000000000000000000000000000000000000000000000000000000000000000000",
      "type": "0x2",
      "transactionHash": "0xe518fd95aec16042ed9aeec13d9399fd0674764d4dbcbe9c82d0e3406ff2346c",
      "transactionIndex": "0x0",
      "blockHash": "0x488bd920a77d5ee72501fe295cc694c0cbe676590df83f4117a82125b197ef94",
      "blockNumber": "0x143",
      "gasUsed": "0xf37fa",
      "effectiveGasPrice": "0x8",
      "from": "0x8943545177806ed17b9f23f0a21ee5948ecaa776",
      "to": null,
      "contractAddress": "0x1430c9c2143f97aae765197e744baba7e78acaf0"
    },
    {
      "status": "0x1",
      "cumulativeGasUsed": "0x119c87",
      "logs": [],
      "logsBloom": "0x00000000000000000000000000000000000000000000000000000000000000000000000000000000000000000000000000000000000000000000000000000000000000000000000000000000000000000000000000000000000000000000000000000000000000000000000000000000000000000000000000000000000000000000000000000000000000000000000000000000000000000000000000000000000000000000000000000000000000000000000000000000000000000000000000000000000000000000000000000000000000000000000000000000000000000000000000000000000000000000000000000000000000000000000000000000",
      "type": "0x2",
      "transactionHash": "0x727e438317f088470d4c092e55123dccd49d32d6e5252d2317065591252412e3",
      "transactionIndex": "0x1",
      "blockHash": "0x488bd920a77d5ee72501fe295cc694c0cbe676590df83f4117a82125b197ef94",
      "blockNumber": "0x143",
      "gasUsed": "0x2648d",
      "effectiveGasPrice": "0x8",
      "from": "0x8943545177806ed17b9f23f0a21ee5948ecaa776",
      "to": null,
      "contractAddress": "0x80741a37e3644612f0465145c9709a90b6d77ee3"
    },
    {
      "status": "0x1",
      "cumulativeGasUsed": "0x124737",
      "logs": [],
      "logsBloom": "0x00000000000000000000000000000000000000000000000000000000000000000000000000000000000000000000000000000000000000000000000000000000000000000000000000000000000000000000000000000000000000000000000000000000000000000000000000000000000000000000000000000000000000000000000000000000000000000000000000000000000000000000000000000000000000000000000000000000000000000000000000000000000000000000000000000000000000000000000000000000000000000000000000000000000000000000000000000000000000000000000000000000000000000000000000000000",
      "type": "0x2",
      "transactionHash": "0x40c7ea25e95e6a87672deb113da9a76eaaa702141ff3991a91f54bde6ea46286",
      "transactionIndex": "0x2",
      "blockHash": "0x488bd920a77d5ee72501fe295cc694c0cbe676590df83f4117a82125b197ef94",
      "blockNumber": "0x143",
      "gasUsed": "0xaab0",
      "effectiveGasPrice": "0x8",
      "from": "0x8943545177806ed17b9f23f0a21ee5948ecaa776",
      "to": "0x80741a37e3644612f0465145c9709a90b6d77ee3",
      "contractAddress": null
    },
    {
      "status": "0x1",
      "cumulativeGasUsed": "0x12b379",
      "logs": [
        {
          "address": "0x1430c9c2143f97aae765197e744baba7e78acaf0",
          "topics": [
            "0x3cf8b50771c17d723f2cb711ca7dadde485b222e13c84ba0730a14093fad6d5c"
          ],
          "data": "0x000000000000000000000000000000000000000000000000000000000000002b",
          "blockHash": "0x488bd920a77d5ee72501fe295cc694c0cbe676590df83f4117a82125b197ef94",
          "blockNumber": "0x143",
          "blockTimestamp": "0x68473ae8",
          "transactionHash": "0x0b4c7d975a982a47d49b0eab8103358fabc6ccfe4ceceeb3842adc91cdcd8d58",
          "transactionIndex": "0x3",
          "logIndex": "0x0",
          "removed": false
        }
      ],
      "logsBloom": "0x00000000000000000000200008001000000000000000000000000000000000000000000000000000000000000000000000000000000000000000040000000000010000000000000000000000000000000000000000000000000000000000000000000000000000000000000000000000000000000000000000000000000000000000000000000000000000000000000000000000000000000000000000000001000000000000000000000000000000000000000000000000000000000000000000000000000000000000000000000000000000000000000000000000000000000000000000000000000000000000000000000000000000000000000000000000",
      "type": "0x2",
      "transactionHash": "0x0b4c7d975a982a47d49b0eab8103358fabc6ccfe4ceceeb3842adc91cdcd8d58",
      "transactionIndex": "0x3",
      "blockHash": "0x488bd920a77d5ee72501fe295cc694c0cbe676590df83f4117a82125b197ef94",
      "blockNumber": "0x143",
      "gasUsed": "0x6c42",
      "effectiveGasPrice": "0x8",
      "from": "0x8943545177806ed17b9f23f0a21ee5948ecaa776",
      "to": "0x1430c9c2143f97aae765197e744baba7e78acaf0",
      "contractAddress": null
    },
    {
      "status": "0x1",
      "cumulativeGasUsed": "0x13676a",
      "logs": [
        {
          "address": "0x1430c9c2143f97aae765197e744baba7e78acaf0",
          "topics": [
            "0x8ad64a0ac7700dd8425ab0499f107cb6e2cd1581d803c5b8c1c79dcb8190b1af",
            "0x000000000000000000000000e25583099ba105d9ec0a67f5ae86d90e50036425"
          ],
          "data": "0x00000000000000000000000000000000000000000000000000000000000001f4",
          "blockHash": "0x488bd920a77d5ee72501fe295cc694c0cbe676590df83f4117a82125b197ef94",
          "blockNumber": "0x143",
          "blockTimestamp": "0x68473ae8",
          "transactionHash": "0x75fd2b50221a76f47613b84f7d415c753c284769890e950d5a7c1b5f040ccbeb",
          "transactionIndex": "0x4",
          "logIndex": "0x1",
          "removed": false
        }
      ],
      "logsBloom": "0x00000000000000040000200008000000000000000000000000000000000000000000000000000000000000000000000000000040000000000000000000000000000000000000000000000000000008000000000000000000000000000000000000000000000000000000000000000000000000000000000000000000000000000000000000000000000000000000000000000000000000000000000200000001000000000000000000000000000000000000000000000000000000000000000000000000000000000000000000000000000000000000000000000000000000000000000000000000000000000000001000000000000000000000000400000000",
      "type": "0x2",
      "transactionHash": "0x75fd2b50221a76f47613b84f7d415c753c284769890e950d5a7c1b5f040ccbeb",
      "transactionIndex": "0x4",
      "blockHash": "0x488bd920a77d5ee72501fe295cc694c0cbe676590df83f4117a82125b197ef94",
      "blockNumber": "0x143",
      "gasUsed": "0xb3f1",
      "effectiveGasPrice": "0x8",
      "from": "0x8943545177806ed17b9f23f0a21ee5948ecaa776",
      "to": "0x1430c9c2143f97aae765197e744baba7e78acaf0",
      "contractAddress": null
    },
    {
      "status": "0x1",
      "cumulativeGasUsed": "0x14279c",
      "logs": [],
      "logsBloom": "0x00000000000000000000000000000000000000000000000000000000000000000000000000000000000000000000000000000000000000000000000000000000000000000000000000000000000000000000000000000000000000000000000000000000000000000000000000000000000000000000000000000000000000000000000000000000000000000000000000000000000000000000000000000000000000000000000000000000000000000000000000000000000000000000000000000000000000000000000000000000000000000000000000000000000000000000000000000000000000000000000000000000000000000000000000000000",
      "type": "0x2",
      "transactionHash": "0xca99eb4e7168edd1f52dd949d3979bfb9743763b581429c44c24abcf4fb89923",
      "transactionIndex": "0x5",
      "blockHash": "0x488bd920a77d5ee72501fe295cc694c0cbe676590df83f4117a82125b197ef94",
      "blockNumber": "0x143",
      "gasUsed": "0xc032",
      "effectiveGasPrice": "0x8",
      "from": "0x8943545177806ed17b9f23f0a21ee5948ecaa776",
      "to": "0x1430c9c2143f97aae765197e744baba7e78acaf0",
      "contractAddress": null
    },
    {
      "status": "0x1",
      "cumulativeGasUsed": "0x158ac7",
      "logs": [],
      "logsBloom": "0x00000000000000000000000000000000000000000000000000000000000000000000000000000000000000000000000000000000000000000000000000000000000000000000000000000000000000000000000000000000000000000000000000000000000000000000000000000000000000000000000000000000000000000000000000000000000000000000000000000000000000000000000000000000000000000000000000000000000000000000000000000000000000000000000000000000000000000000000000000000000000000000000000000000000000000000000000000000000000000000000000000000000000000000000000000000",
      "type": "0x2",
      "transactionHash": "0x0f07cf547a6801e5ec65cd4081f9a6834e7fab38cb3c0482f6327c358c25db49",
      "transactionIndex": "0x6",
      "blockHash": "0x488bd920a77d5ee72501fe295cc694c0cbe676590df83f4117a82125b197ef94",
      "blockNumber": "0x143",
      "gasUsed": "0x1632b",
      "effectiveGasPrice": "0x8",
      "from": "0x8943545177806ed17b9f23f0a21ee5948ecaa776",
      "to": "0x1430c9c2143f97aae765197e744baba7e78acaf0",
      "contractAddress": null
    },
    {
      "status": "0x1",
      "cumulativeGasUsed": "0x1639ea",
      "logs": [],
      "logsBloom": "0x00000000000000000000000000000000000000000000000000000000000000000000000000000000000000000000000000000000000000000000000000000000000000000000000000000000000000000000000000000000000000000000000000000000000000000000000000000000000000000000000000000000000000000000000000000000000000000000000000000000000000000000000000000000000000000000000000000000000000000000000000000000000000000000000000000000000000000000000000000000000000000000000000000000000000000000000000000000000000000000000000000000000000000000000000000000",
      "type": "0x2",
      "transactionHash": "0xab46b3eeb3a8665a28a58b39ae0909496c06a332a743f3e0bd27f5bcd8288b7d",
      "transactionIndex": "0x7",
      "blockHash": "0x488bd920a77d5ee72501fe295cc694c0cbe676590df83f4117a82125b197ef94",
      "blockNumber": "0x143",
      "gasUsed": "0xaf23",
      "effectiveGasPrice": "0x8",
      "from": "0x8943545177806ed17b9f23f0a21ee5948ecaa776",
      "to": "0x1430c9c2143f97aae765197e744baba7e78acaf0",
      "contractAddress": null
    },
    {
      "status": "0x1",
      "cumulativeGasUsed": "0x1ada08",
      "logs": [],
      "logsBloom": "0x00000000000000000000000000000000000000000000000000000000000000000000000000000000000000000000000000000000000000000000000000000000000000000000000000000000000000000000000000000000000000000000000000000000000000000000000000000000000000000000000000000000000000000000000000000000000000000000000000000000000000000000000000000000000000000000000000000000000000000000000000000000000000000000000000000000000000000000000000000000000000000000000000000000000000000000000000000000000000000000000000000000000000000000000000000000",
      "type": "0x2",
      "transactionHash": "0x1f7e7b2413e1dc3c894d61d87b2df838c283a89d67e57ff9228f2245180fea87",
      "transactionIndex": "0x8",
      "blockHash": "0x488bd920a77d5ee72501fe295cc694c0cbe676590df83f4117a82125b197ef94",
      "blockNumber": "0x143",
      "gasUsed": "0x4a01e",
      "effectiveGasPrice": "0x8",
      "from": "0x8943545177806ed17b9f23f0a21ee5948ecaa776",
      "to": null,
      "contractAddress": "0xc5fc7ce1d859e6604f1e8e57ba0f4a92858850bc"
    },
    {
      "status": "0x1",
      "cumulativeGasUsed": "0x1b418f",
      "logs": [],
      "logsBloom": "0x00000000000000000000000000000000000000000000000000000000000000000000000000000000000000000000000000000000000000000000000000000000000000000000000000000000000000000000000000000000000000000000000000000000000000000000000000000000000000000000000000000000000000000000000000000000000000000000000000000000000000000000000000000000000000000000000000000000000000000000000000000000000000000000000000000000000000000000000000000000000000000000000000000000000000000000000000000000000000000000000000000000000000000000000000000000",
      "type": "0x2",
      "transactionHash": "0x9bc1c4af8a38679bb48e29ce78f1e5939cc3a6b0bb300f7e077a6dceaa65ba8b",
      "transactionIndex": "0x9",
      "blockHash": "0x488bd920a77d5ee72501fe295cc694c0cbe676590df83f4117a82125b197ef94",
      "blockNumber": "0x143",
      "gasUsed": "0x6787",
      "effectiveGasPrice": "0x8",
      "from": "0x8943545177806ed17b9f23f0a21ee5948ecaa776",
      "to": "0xc5fc7ce1d859e6604f1e8e57ba0f4a92858850bc",
      "contractAddress": null
    }
  ],
  "libraries": [],
  "pending": [],
  "returns": {},
  "timestamp": 1749498600,
  "chain": 3151908,
  "commit": "281191e"
}