{
  "transactions": [
    {
      "hash": "0x689348a2e0209d2c3ec99f2ce8bf30f9ba3139805ba878a6f1f3fc9f9f7f1d6a",
      "transactionType": "CREATE",
      "contractName": "SampleContract",
      "contractAddress": "0x9d2ea2038cf6009f1bc57e32818204726dfa63cd",
      "function": null,
      "arguments": null,
      "transaction": {
        "from": "0x8943545177806ed17b9f23f0a21ee5948ecaa776",
        "gas": "0xc1450",
        "value": "0x0",
        "input": "0x60806040523461026157602a5f55335f5260016020526103e860405f20556003546801000000000000000081101561023957600181018060035581101561024d5760035f527fc2575a0e9e593c00f959f8c92f12db2869c3395a3b0502d05e2516446f71f85b0180546001600160a01b03191633179055604051606081016001600160401b0381118282101761023957604081815281016001600160401b0381118282101761023957604052600581526420b236b4b760d91b602082015281526020810190601e8252604081019060018252335f52600460205260405f20905192835160018060401b038111610239578254600181811c9116801561022f575b602082101461021b57601f81116101d6575b506020601f8211600114610171578190600295965f92610166575b50508160011b915f199060031b1c19161782555b516001820155019051151560ff8019835416911617905560405161071190816102668239f35b015190505f8061012c565b601f19821695845f52815f20965f5b8181106101be57509160029697918460019594106101a6575b505050811b018255610140565b01515f1960f88460031b161c191690555f8080610199565b83830151895560019098019760209384019301610180565b835f5260205f20601f830160051c81019160208410610211575b601f0160051c01905b8181106102065750610111565b5f81556001016101f9565b90915081906101f0565b634e487b7160e01b5f52602260045260245ffd5b90607f16906100ff565b634e487b7160e01b5f52604160045260245ffd5b634e487b7160e01b5f52603260045260245ffd5b5f80fdfe60806040526004361015610011575f80fd5b5f3560e01c806317652083146105cf57806327e235e31461059757806338eada1c146105365780635b34b966146104d557806361bc221a146104b957806362c6ca4614610470578063a87430ba1461036d578063c420fa8514610154578063cdbb02af14610137578063e30443bc146100d85763edf26d9b14610092575f80fd5b346100d45760203660031901126100d4576004356003548110156100d4576100bb6020916106af565b905460405160039290921b1c6001600160a01b03168152f35b5f80fd5b346100d45760403660031901126100d4576100f161063f565b7f8ad64a0ac7700dd8425ab0499f107cb6e2cd1581d803c5b8c1c79dcb8190b1af60206024359260018060a01b031692835f52600182528060405f2055604051908152a2005b346100d4575f3660031901126100d4576020600354604051908152f35b346100d45760803660031901126100d45761016d61063f565b60243567ffffffffffffffff81116100d457366023820112156100d457806004013567ffffffffffffffff811161035957604051916101b6601f8301601f19166020018461068d565b81835236602483830101116100d457815f9260246020930183860137830101526064358015158091036100d457604051916060830183811067ffffffffffffffff821117610359576040528252602082019260443584526040830191825260018060a01b03165f52600460205260405f20915192835167ffffffffffffffff8111610359576102458454610655565b601f8111610314575b506020601f82116001146102ab579080600294939261029e975f926102a0575b50508160011b915f199060031b1c19161784555b51600184015551151591019060ff801983541691151516179055565b005b01519050878061026e565b601f19821695855f52815f20965f5b8181106102fc5750966001928492600297969561029e9a106102e4575b505050811b018455610282565b01515f1960f88460031b161c191690558780806102d7565b838301518955600190980197602093840193016102ba565b845f5260205f20601f830160051c8101916020841061034f575b601f0160051c01905b818110610344575061024e565b5f8155600101610337565b909150819061032e565b634e487b7160e01b5f52604160045260245ffd5b346100d45760203660031901126100d4576001600160a01b0361038e61063f565b165f52600460205260405f20604051905f9181546103ab81610655565b808352602083019160018116908115610455575060011461041c575b506103d78260809495038361068d565b60ff6002600186015495015416604051948593606085525180938160608701528686015e5f848401860152602084015215156040830152601f01601f19168101030190f35b9350825f5260205f205f905b85821061043f5750820160200193506103d76103c7565b6001816020925483858801015201910190610428565b60ff1916835250151560051b820160200193506103d76103c7565b346100d45760403660031901126100d457610489610629565b6004355f52600260205260405f209060018060a01b03165f52602052602060ff60405f2054166040519015158152f35b346100d4575f3660031901126100d45760205f54604051908152f35b346100d4575f3660031901126100d4575f545f19811461052257602060017f3cf8b50771c17d723f2cb711ca7dadde485b222e13c84ba0730a14093fad6d5c9201805f55604051908152a1005b634e487b7160e01b5f52601160045260245ffd5b346100d45760203660031901126100d45761054f61063f565b600354680100000000000000008110156103595780600161057392016003556106af565b81546001600160a01b0393841660039290921b91821b9390911b1916919091179055005b346100d45760203660031901126100d4576001600160a01b036105b861063f565b165f526001602052602060405f2054604051908152f35b346100d45760603660031901126100d4576105e8610629565b60443580151581036100d45761029e916004355f52600260205260405f209060018060a01b03165f5260205260405f209060ff801983541691151516179055565b602435906001600160a01b03821682036100d457565b600435906001600160a01b03821682036100d457565b90600182811c92168015610683575b602083101461066f57565b634e487b7160e01b5f52602260045260245ffd5b91607f1691610664565b90601f8019910116810190811067ffffffffffffffff82111761035957604052565b6003548110156106c75760035f5260205f2001905f90565b634e487b7160e01b5f52603260045260245ffdfea26469706673582212201350d4d4762ad66145c7dd5aaa4895658f92c79282aeae767abfdecd8cfb2f8964736f6c634300081c0033",
        "nonce": "0x3c",
        "chainId": "0x301824"
      },
      "additionalContracts": [],
      "isFixedGasLimit": false
    },
    {
      "hash": "0x99977553b99ba132c5d58922fb4e5b08fdf33ba4c6d6431a4b56db272369af41",
      "transactionType": "CREATE",
      "contractName": "Counter",
      "contractAddress": "0x1912a7496314854fb890b1b88c0f1ced653c1830",
      "function": null,
      "arguments": null,
      "transaction": {
        "from": "0x8943545177806ed17b9f23f0a21ee5948ecaa776",
        "gas": "0x1f5c6",
        "value": "0x0",
        "input": "0x6080806040523460135760d2908160188239f35b5f80fdfe60808060405260043610156011575f80fd5b5f3560e01c9081633fb5c1cb1460865781638381f58a14606f575063d09de08a146039575f80fd5b34606b575f366003190112606b575f545f1981146057576001015f55005b634e487b7160e01b5f52601160045260245ffd5b5f80fd5b34606b575f366003190112606b576020905f548152f35b34606b576020366003190112606b576004355f5500fea2646970667358221220f9f855d7c4d18c61d17f946785ac938564951c76bdc1e0d79b19c25c784a54fb64736f6c634300081c0033",
        "nonce": "0x3d",
        "chainId": "0x301824"
      },
      "additionalContracts": [],
      "isFixedGasLimit": false
    },
    {
      "hash": "0xdee27efe24d0c77a347483613a7b5a0a09fa5d74e15018a600168f9efcfbca9f",
      "transactionType": "CALL",
      "contractName": "Counter",
      "contractAddress": "0x1912a7496314854fb890b1b88c0f1ced653c1830",
      "function": "setNumber(uint256)",
      "arguments": [
        "100"
      ],
      "transaction": {
        "from": "0x8943545177806ed17b9f23f0a21ee5948ecaa776",
        "to": "0x1912a7496314854fb890b1b88c0f1ced653c1830",
        "gas": "0xea61",
        "value": "0x0",
        "input": "0x3fb5c1cb0000000000000000000000000000000000000000000000000000000000000064",
        "nonce": "0x3e",
        "chainId": "0x301824"
      },
      "additionalContracts": [],
      "isFixedGasLimit": false
    },
    {
      "hash": "0x6c794b787de12bf4a205bfa76ace29e85724dd02621c2418ba68a99b8fa9d537",
      "transactionType": "CALL",
      "contractName": "SampleContract",
      "contractAddress": "0x9d2ea2038cf6009f1bc57e32818204726dfa63cd",
      "function": "incrementCounter()",
      "arguments": [],
      "transaction": {
        "from": "0x8943545177806ed17b9f23f0a21ee5948ecaa776",
        "to": "0x9d2ea2038cf6009f1bc57e32818204726dfa63cd",
        "gas": "0x936c",
        "value": "0x0",
        "input": "0x5b34b966",
        "nonce": "0x3f",
        "chainId": "0x301824"
      },
      "additionalContracts": [],
      "isFixedGasLimit": false
    },
    {
      "hash": "0xf8366c075bd29032d58e22cf3069933acd728328adafbc6cd481a1e1aeffa408",
      "transactionType": "CALL",
      "contractName": "SampleContract",
      "contractAddress": "0x9d2ea2038cf6009f1bc57e32818204726dfa63cd",
      "function": "setBalance(address,uint256)",
      "arguments": [
        "0xE25583099BA105D9ec0A67f5Ae86D90e50036425",
        "500"
      ],
      "transaction": {
        "from": "0x8943545177806ed17b9f23f0a21ee5948ecaa776",
        "to": "0x9d2ea2038cf6009f1bc57e32818204726dfa63cd",
        "gas": "0xf5ef",
        "value": "0x0",
        "input": "0xe30443bc000000000000000000000000e25583099ba105d9ec0a67f5ae86d90e5003642500000000000000000000000000000000000000000000000000000000000001f4",
        "nonce": "0x40",
        "chainId": "0x301824"
      },
      "additionalContracts": [],
      "isFixedGasLimit": false
    },
    {
      "hash": "0xb2e444976ccab81889fd7b65cf9a306790df626e14ead46b531e5457d44e5299",
      "transactionType": "CALL",
      "contractName": "SampleContract",
      "contractAddress": "0x9d2ea2038cf6009f1bc57e32818204726dfa63cd",
      "function": "addAddress(address)",
      "arguments": [
        "0x614561D2d143621E126e87831AEF287678B442b8"
      ],
      "transaction": {
        "from": "0x8943545177806ed17b9f23f0a21ee5948ecaa776",
        "to": "0x9d2ea2038cf6009f1bc57e32818204726dfa63cd",
        "gas": "0x1188a",
        "value": "0x0",
        "input": "0x38eada1c000000000000000000000000614561d2d143621e126e87831aef287678b442b8",
        "nonce": "0x41",
        "chainId": "0x301824"
      },
      "additionalContracts": [],
      "isFixedGasLimit": false
    },
    {
      "hash": "0xdd5c53f969dfbb22e819d19b52ed24e3f81bb0c677e9286d910fd1136fa49a32",
      "transactionType": "CALL",
      "contractName": "SampleContract",
      "contractAddress": "0x9d2ea2038cf6009f1bc57e32818204726dfa63cd",
      "function": "setUser(address,string,uint256,bool)",
      "arguments": [
        "0xf93Ee4Cf8c6c40b329b0c0626F28333c132CF241",
        "Alice",
        "25",
        "true"
      ],
      "transaction": {
        "from": "0x8943545177806ed17b9f23f0a21ee5948ecaa776",
        "to": "0x9d2ea2038cf6009f1bc57e32818204726dfa63cd",
        "gas": "0x200e2",
        "value": "0x0",
        "input": "0xc420fa85000000000000000000000000f93ee4cf8c6c40b329b0c0626f28333c132cf2410000000000000000000000000000000000000000000000000000000000000080000000000000000000000000000000000000000000000000000000000000001900000000000000000000000000000000000000000000000000000000000000010000000000000000000000000000000000000000000000000000000000000005416c696365000000000000000000000000000000000000000000000000000000",
        "nonce": "0x42",
        "chainId": "0x301824"
      },
      "additionalContracts": [],
      "isFixedGasLimit": false
    },
    {
      "hash": "0x56013b1867faa3a9d9a3acfbc47f805dbf5a6d213af87ae2bf351ef0fd5ee475",
      "transactionType": "CALL",
      "contractName": "SampleContract",
      "contractAddress": "0x9d2ea2038cf6009f1bc57e32818204726dfa63cd",
      "function": "setNestedMapping(uint256,address,bool)",
      "arguments": [
        "1",
        "0x802dCbE1B1A97554B4F50DB5119E37E8e7336417",
        "true"
      ],
      "transaction": {
        "from": "0x8943545177806ed17b9f23f0a21ee5948ecaa776",
        "to": "0x9d2ea2038cf6009f1bc57e32818204726dfa63cd",
        "gas": "0xeeae",
        "value": "0x0",
        "input": "0x176520830000000000000000000000000000000000000000000000000000000000000001000000000000000000000000802dcbe1b1a97554b4f50db5119e37e8e73364170000000000000000000000000000000000000000000000000000000000000001",
        "nonce": "0x43",
        "chainId": "0x301824"
      },
      "additionalContracts": [],
      "isFixedGasLimit": false
    },
    {
      "hash": "0x2fd6dceeb8d755142272bee20ee32de3fccd9ef931aa11d7c5bd501a50aaa9e4",
      "transactionType": "CREATE",
      "contractName": "TimboTest",
      "contractAddress": "0xdfb2fac1519eda2b3ee1edf578ee0509dc8633f7",
      "function": null,
      "arguments": null,
      "transaction": {
        "from": "0x8943545177806ed17b9f23f0a21ee5948ecaa776",
        "gas": "0x3ccda",
        "value": "0x0",
        "input": "0x60808060405234602b57600a5f55600180546001600160a01b031916331790556101b290816100308239f35b5f80fdfe6080806040526004361015610012575f80fd5b5f3560e01c9081632baeceb7146100fd575080638381f58a146100e15780638da5cb5b146100b95763d826f88f14610048575f80fd5b346100b5575f3660031901126100b5576001546001600160a01b0316330361007057600a5f55005b60405162461bcd60e51b815260206004820152601760248201527f4f6e6c792063616c6c61626c65206279206f776e6572210000000000000000006044820152606490fd5b5f80fd5b346100b5575f3660031901126100b5576001546040516001600160a01b039091168152602090f35b346100b5575f3660031901126100b55760205f54604051908152f35b346100b5575f3660031901126100b5575f5490811561013a57505f198101908111610126575f55005b634e487b7160e01b5f52601160045260245ffd5b62461bcd60e51b815260206004820152601f60248201527f4e756d6265722073686f756c642062652067726561746572207468616e2030006044820152606490fdfea26469706673582212208442c2777e96dd8874070604c7304a6f682781149d512291416c9c9e829cc27e64736f6c634300081c0033",
        "nonce": "0x44",
        "chainId": "0x301824"
      },
      "additionalContracts": [],
      "isFixedGasLimit": false
    },
    {
      "hash": "0xbb35487643679c887a045f3a4d14875ef1e5ff50b78dc88453bd41642a28dbce",
      "transactionType": "CALL",
      "contractName": "TimboTest",
      "contractAddress": "0xdfb2fac1519eda2b3ee1edf578ee0509dc8633f7",
      "function": "decrement()",
      "arguments": [],
      "transaction": {
        "from": "0x8943545177806ed17b9f23f0a21ee5948ecaa776",
        "to": "0xdfb2fac1519eda2b3ee1edf578ee0509dc8633f7",
        "gas": "0x8da3",
        "value": "0x0",
        "input": "0x2baeceb7",
        "nonce": "0x45",
        "chainId": "0x301824"
      },
      "additionalContracts": [],
      "isFixedGasLimit": false
    }
  ],
  "receipts": [
    {
      "status": "0x1",
      "cumulativeGasUsed": "0x94ab4",
      "logs": [],
      "logsBloom": "0x00000000000000000000000000000000000000000000000000000000000000000000000000000000000000000000000000000000000000000000000000000000000000000000000000000000000000000000000000000000000000000000000000000000000000000000000000000000000000000000000000000000000000000000000000000000000000000000000000000000000000000000000000000000000000000000000000000000000000000000000000000000000000000000000000000000000000000000000000000000000000000000000000000000000000000000000000000000000000000000000000000000000000000000000000000000",
      "type": "0x2",
      "transactionHash": "0x689348a2e0209d2c3ec99f2ce8bf30f9ba3139805ba878a6f1f3fc9f9f7f1d6a",
      "transactionIndex": "0x0",
      "blockHash": "0xf0482dfb03661cbe3217323c4c7b900b7c5ccaa9b1678682c5f7a726ab921922",
      "blockNumber": "0x71b",
      "gasUsed": "0x94ab4",
      "effectiveGasPrice": "0x8",
      "from": "0x8943545177806ed17b9f23f0a21ee5948ecaa776",
      "to": null,
      "contractAddress": "0x9d2ea2038cf6009f1bc57e32818204726dfa63cd"
    },
    {
      "status": "0x1",
      "cumulativeGasUsed": "0xaccaf",
      "logs": [],
      "logsBloom": "0x00000000000000000000000000000000000000000000000000000000000000000000000000000000000000000000000000000000000000000000000000000000000000000000000000000000000000000000000000000000000000000000000000000000000000000000000000000000000000000000000000000000000000000000000000000000000000000000000000000000000000000000000000000000000000000000000000000000000000000000000000000000000000000000000000000000000000000000000000000000000000000000000000000000000000000000000000000000000000000000000000000000000000000000000000000000",
      "type": "0x2",
      "transactionHash": "0x99977553b99ba132c5d58922fb4e5b08fdf33ba4c6d6431a4b56db272369af41",
      "transactionIndex": "0x1",
      "blockHash": "0xf0482dfb03661cbe3217323c4c7b900b7c5ccaa9b1678682c5f7a726ab921922",
      "blockNumber": "0x71b",
      "gasUsed": "0x181fb",
      "effectiveGasPrice": "0x8",
      "from": "0x8943545177806ed17b9f23f0a21ee5948ecaa776",
      "to": null,
      "contractAddress": "0x1912a7496314854fb890b1b88c0f1ced653c1830"
    },
    {
      "status": "0x1",
      "cumulativeGasUsed": "0xb765f",
      "logs": [],
      "logsBloom": "0x00000000000000000000000000000000000000000000000000000000000000000000000000000000000000000000000000000000000000000000000000000000000000000000000000000000000000000000000000000000000000000000000000000000000000000000000000000000000000000000000000000000000000000000000000000000000000000000000000000000000000000000000000000000000000000000000000000000000000000000000000000000000000000000000000000000000000000000000000000000000000000000000000000000000000000000000000000000000000000000000000000000000000000000000000000000",
      "type": "0x2",
      "transactionHash": "0xdee27efe24d0c77a347483613a7b5a0a09fa5d74e15018a600168f9efcfbca9f",
      "transactionIndex": "0x2",
      "blockHash": "0xf0482dfb03661cbe3217323c4c7b900b7c5ccaa9b1678682c5f7a726ab921922",
      "blockNumber": "0x71b",
      "gasUsed": "0xa9b0",
      "effectiveGasPrice": "0x8",
      "from": "0x8943545177806ed17b9f23f0a21ee5948ecaa776",
      "to": "0x1912a7496314854fb890b1b88c0f1ced653c1830",
      "contractAddress": null
    },
    {
      "status": "0x1",
      "cumulativeGasUsed": "0xbe11b",
      "logs": [
        {
          "address": "0x9d2ea2038cf6009f1bc57e32818204726dfa63cd",
          "topics": [
            "0x3cf8b50771c17d723f2cb711ca7dadde485b222e13c84ba0730a14093fad6d5c"
          ],
          "data": "0x000000000000000000000000000000000000000000000000000000000000002b",
          "blockHash": "0xf0482dfb03661cbe3217323c4c7b900b7c5ccaa9b1678682c5f7a726ab921922",
          "blockNumber": "0x71b",
          "blockTimestamp": "0x684740c0",
          "transactionHash": "0x6c794b787de12bf4a205bfa76ace29e85724dd02621c2418ba68a99b8fa9d537",
          "transactionIndex": "0x3",
          "logIndex": "0x0",
          "removed": false
        }
      ],
      "logsBloom": "0x00000000000000000000000000001000000000000000000000000000000000000000000000000000000000000000000000000000000000000000040000000000010000000000000000000000000000000000000000000000000000000000000000000000000000000000000000000000000000000000000000000000000020000000000000000000000000000000000000000100000000000000000000000000000000000000000000000000000000000000000000000000000000000000000000000000000000000000000000000000000000000000000000000000000004000000000000000000000000000000000000000000000000000000000000000000",
      "type": "0x2",
      "transactionHash": "0x6c794b787de12bf4a205bfa76ace29e85724dd02621c2418ba68a99b8fa9d537",
      "transactionIndex": "0x3",
      "blockHash": "0xf0482dfb03661cbe3217323c4c7b900b7c5ccaa9b1678682c5f7a726ab921922",
      "blockNumber": "0x71b",
      "gasUsed": "0x6abc",
      "effectiveGasPrice": "0x8",
      "from": "0x8943545177806ed17b9f23f0a21ee5948ecaa776",
      "to": "0x9d2ea2038cf6009f1bc57e32818204726dfa63cd",
      "contractAddress": null
    },
    {
      "status": "0x1",
      "cumulativeGasUsed": "0xc9329",
      "logs": [
        {
          "address": "0x9d2ea2038cf6009f1bc57e32818204726dfa63cd",
          "topics": [
            "0x8ad64a0ac7700dd8425ab0499f107cb6e2cd1581d803c5b8c1c79dcb8190b1af",
            "0x000000000000000000000000e25583099ba105d9ec0a67f5ae86d90e50036425"
          ],
          "data": "0x00000000000000000000000000000000000000000000000000000000000001f4",
          "blockHash": "0xf0482dfb03661cbe3217323c4c7b900b7c5ccaa9b1678682c5f7a726ab921922",
          "blockNumber": "0x71b",
          "blockTimestamp": "0x684740c0",
          "transactionHash": "0xf8366c075bd29032d58e22cf3069933acd728328adafbc6cd481a1e1aeffa408",
          "transactionIndex": "0x4",
          "logIndex": "0x1",
          "removed": false
        }
      ],
      "logsBloom": "0x00000000000000040000000000000000000000000000000000000000000000000000000000000000000000000000000000000040000000000000000000000000000000000000000000000000000008000000000000000000000000000000000000000000000000000000000000000000000000000000000000000000000020000000000000000000000000000000000000000100000000000000000200000000000000000000000000000000000000000000000000000000000000000000000000000000000000000000000000000000000000000000000000000000000004000000000000000000000000000000001000000000000000000000000400000000",
      "type": "0x2",
      "transactionHash": "0xf8366c075bd29032d58e22cf3069933acd728328adafbc6cd481a1e1aeffa408",
      "transactionIndex": "0x4",
      "blockHash": "0xf0482dfb03661cbe3217323c4c7b900b7c5ccaa9b1678682c5f7a726ab921922",
      "blockNumber": "0x71b",
      "gasUsed": "0xb20e",
      "effectiveGasPrice": "0x8",
      "from": "0x8943545177806ed17b9f23f0a21ee5948ecaa776",
      "to": "0x9d2ea2038cf6009f1bc57e32818204726dfa63cd",
      "contractAddress": null
    },
    {
      "status": "0x1",
      "cumulativeGasUsed": "0xd52fc",
      "logs": [],
      "logsBloom": "0x00000000000000000000000000000000000000000000000000000000000000000000000000000000000000000000000000000000000000000000000000000000000000000000000000000000000000000000000000000000000000000000000000000000000000000000000000000000000000000000000000000000000000000000000000000000000000000000000000000000000000000000000000000000000000000000000000000000000000000000000000000000000000000000000000000000000000000000000000000000000000000000000000000000000000000000000000000000000000000000000000000000000000000000000000000000",
      "type": "0x2",
      "transactionHash": "0xb2e444976ccab81889fd7b65cf9a306790df626e14ead46b531e5457d44e5299",
      "transactionIndex": "0x5",
      "blockHash": "0xf0482dfb03661cbe3217323c4c7b900b7c5ccaa9b1678682c5f7a726ab921922",
      "blockNumber": "0x71b",
      "gasUsed": "0xbfd3",
      "effectiveGasPrice": "0x8",
      "from": "0x8943545177806ed17b9f23f0a21ee5948ecaa776",
      "to": "0x9d2ea2038cf6009f1bc57e32818204726dfa63cd",
      "contractAddress": null
    },
    {
      "status": "0x1",
      "cumulativeGasUsed": "0xeb1ad",
      "logs": [],
      "logsBloom": "0x00000000000000000000000000000000000000000000000000000000000000000000000000000000000000000000000000000000000000000000000000000000000000000000000000000000000000000000000000000000000000000000000000000000000000000000000000000000000000000000000000000000000000000000000000000000000000000000000000000000000000000000000000000000000000000000000000000000000000000000000000000000000000000000000000000000000000000000000000000000000000000000000000000000000000000000000000000000000000000000000000000000000000000000000000000000",
      "type": "0x2",
      "transactionHash": "0xdd5c53f969dfbb22e819d19b52ed24e3f81bb0c677e9286d910fd1136fa49a32",
      "transactionIndex": "0x6",
      "blockHash": "0xf0482dfb03661cbe3217323c4c7b900b7c5ccaa9b1678682c5f7a726ab921922",
      "blockNumber": "0x71b",
      "gasUsed": "0x15eb1",
      "effectiveGasPrice": "0x8",
      "from": "0x8943545177806ed17b9f23f0a21ee5948ecaa776",
      "to": "0x9d2ea2038cf6009f1bc57e32818204726dfa63cd",
      "contractAddress": null
    },
    {
      "status": "0x1",
      "cumulativeGasUsed": "0xf5e7b",
      "logs": [],
      "logsBloom": "0x00000000000000000000000000000000000000000000000000000000000000000000000000000000000000000000000000000000000000000000000000000000000000000000000000000000000000000000000000000000000000000000000000000000000000000000000000000000000000000000000000000000000000000000000000000000000000000000000000000000000000000000000000000000000000000000000000000000000000000000000000000000000000000000000000000000000000000000000000000000000000000000000000000000000000000000000000000000000000000000000000000000000000000000000000000000",
      "type": "0x2",
      "transactionHash": "0x56013b1867faa3a9d9a3acfbc47f805dbf5a6d213af87ae2bf351ef0fd5ee475",
      "transactionIndex": "0x7",
      "blockHash": "0xf0482dfb03661cbe3217323c4c7b900b7c5ccaa9b1678682c5f7a726ab921922",
      "blockNumber": "0x71b",
      "gasUsed": "0xacce",
      "effectiveGasPrice": "0x8",
      "from": "0x8943545177806ed17b9f23f0a21ee5948ecaa776",
      "to": "0x9d2ea2038cf6009f1bc57e32818204726dfa63cd",
      "contractAddress": null
    },
    {
      "status": "0x1",
      "cumulativeGasUsed": "0x124ad4",
      "logs": [],
      "logsBloom": "0x00000000000000000000000000000000000000000000000000000000000000000000000000000000000000000000000000000000000000000000000000000000000000000000000000000000000000000000000000000000000000000000000000000000000000000000000000000000000000000000000000000000000000000000000000000000000000000000000000000000000000000000000000000000000000000000000000000000000000000000000000000000000000000000000000000000000000000000000000000000000000000000000000000000000000000000000000000000000000000000000000000000000000000000000000000000",
      "type": "0x2",
      "transactionHash": "0x2fd6dceeb8d755142272bee20ee32de3fccd9ef931aa11d7c5bd501a50aaa9e4",
      "transactionIndex": "0x8",
      "blockHash": "0xf0482dfb03661cbe3217323c4c7b900b7c5ccaa9b1678682c5f7a726ab921922",
      "blockNumber": "0x71b",
      "gasUsed": "0x2ec59",
      "effectiveGasPrice": "0x8",
      "from": "0x8943545177806ed17b9f23f0a21ee5948ecaa776",
      "to": null,
      "contractAddress": "0xdfb2fac1519eda2b3ee1edf578ee0509dc8633f7"
    },
    {
      "status": "0x1",
      "cumulativeGasUsed": "0x12b160",
      "logs": [],
      "logsBloom": "0x00000000000000000000000000000000000000000000000000000000000000000000000000000000000000000000000000000000000000000000000000000000000000000000000000000000000000000000000000000000000000000000000000000000000000000000000000000000000000000000000000000000000000000000000000000000000000000000000000000000000000000000000000000000000000000000000000000000000000000000000000000000000000000000000000000000000000000000000000000000000000000000000000000000000000000000000000000000000000000000000000000000000000000000000000000000",
      "type": "0x2",
      "transactionHash": "0xbb35487643679c887a045f3a4d14875ef1e5ff50b78dc88453bd41642a28dbce",
      "transactionIndex": "0x9",
      "blockHash": "0xf0482dfb03661cbe3217323c4c7b900b7c5ccaa9b1678682c5f7a726ab921922",
      "blockNumber": "0x71b",
      "gasUsed": "0x668c",
      "effectiveGasPrice": "0x8",
      "from": "0x8943545177806ed17b9f23f0a21ee5948ecaa776",
      "to": "0xdfb2fac1519eda2b3ee1edf578ee0509dc8633f7",
      "contractAddress": null
    }
  ],
  "libraries": [],
  "pending": [],
  "returns": {},
  "timestamp": 1749500096,
  "chain": 3151908,
  "commit": "37ba5c4"
}